:100000000C945D000C9485000C9485000C94850084
:100010000C9485000C9485000C9485000C9485004C
:100020000C9485000C9485000C9485000C9485003C
:100030000C9485000C9485000C9485000C9485002C
:100040000C94C7020C9485000C9495020C946F02DA
:100050000C9485000C9485000C9485000C9485000C
:100060000C9485000C94850000000008000201003B
:100070000003040700000000000000000000000072
:10008000250028002B0000000000240027002A0083
:10009000040404040404040402020202020203032E
:1000A0000303030301020408102040800102040836
:1000B0001020010204081020E50311241FBECFEF19
:1000C000D8E0DEBFCDBF11E0A0E0B1E0E4E3F8E0AE
:1000D00002C005900D92A231B107D9F721E0A2E14B
:1000E000B1E001C01D92AA3BB207E1F710E0CDE5F7
:1000F000D0E004C02197FE010E941204CC35D10744
:10010000C9F70E9411030C9418040C94000090E0AD
:10011000FC01EC55FF4F249180579F4FFC018491C7
:10012000882399F090E0880F991FFC01EA57FF4F50
:10013000A591B491FC01E458FF4F859194918FB73C
:10014000F894EC91E22BEC938FBF0895AF92BF929D
:10015000CF92DF92EF92FF920F931F93CF93DF9393
:100160006C017B018B01040F151FEB015E01AE18C2
:10017000BF08C017D10759F06991D601ED91FC91E4
:100180000190F081E02DC6010995892B79F7C50111
:10019000DF91CF911F910F91FF90EF90DF90CF9063
:1001A000BF90AF900895FC01538D448D252F30E012
:1001B000842F90E0821B930B541710F0CF96089574
:1001C00001970895FC01918D828D981761F0A28DA1
:1001D000AE0FBF2FB11D5D968C91928D9F5F9F7367
:1001E000928F90E008958FEF9FEF0895FC01918D1D
:1001F000828D981731F0828DE80FF11D858D90E08A
:1002000008958FEF9FEF0895FC01918D228D892F26
:1002100090E0805C9F4F821B91098F73992708950E
:100220008DE191E00E94040121E0892B09F420E096
:10023000822F089580E090E0892B29F00E94100120
:1002400081110C9400000895FC01A48DA80FB92F12
:10025000B11DA35ABF4F2C91848D90E001968F73EE
:100260009927848FA689B7892C93A089B1898C910D
:10027000837080648C93938D848D981306C002885C
:10028000F389E02D80818F7D80830895EF92FF9226
:100290000F931F93CF93DF93EC0181E0888F9B8DA9
:1002A0008C8D98131AC0E889F989808185FF15C063
:1002B0009FB7F894EE89FF896083E889F989808186
:1002C0008370806480839FBF81E090E0DF91CF9155
:1002D0001F910F91FF90EF900895F62E0B8D10E077
:1002E0000F5F1F4F0F731127E02E8C8D8E110CC0E6
:1002F0000FB607FCFACFE889F989808185FFF5CF31
:10030000CE010E942401F1CFEB8DEC0FFD2FF11DEA
:10031000E35AFF4FF0829FB7F8940B8FEA89FB896D
:1003200080818062CFCFCF93DF93EC01888D8823CB
:10033000B9F0AA89BB89E889F9898C9185FD03C048
:10034000808186FD0DC00FB607FCF7CF8C9185FF2D
:10035000F2CF808185FFEDCFCE010E942401E9CF4D
:10036000DF91CF91089590E0FC01E859FF4F24916F
:10037000FC01EC55FF4F3491FC01E057FF4FE49135
:10038000EE23C9F0222339F0233001F1A8F4213003
:1003900019F1223029F1F0E0EE0FFF1FE458FF4F72
:1003A000A591B4918FB7F894EC91611126C0309566
:1003B0003E233C938FBF08952730A9F02830C9F021
:1003C000243049F7809180008F7D03C080918000A8
:1003D0008F7780938000DFCF84B58F7784BDDBCFAC
:1003E00084B58F7DFBCF8091B0008F778093B00074
:1003F000D2CF8091B0008F7DF9CF3E2BDACF3FB7BF
:10040000F8948091170190911801A0911901B09171
:100410001A0126B5A89B05C02F3F19F00196A11D12
:10042000B11D3FBFBA2FA92F982F8827BC01CD013E
:10043000620F711D811D911D42E0660F771F881F9D
:10044000991F4A95D1F708958F929F92AF92BF92CC
:10045000CF92DF92EF92FF924B015C010E94FF016D
:100460006B017C010E94FF016C197D098E099F09B7
:10047000683E734081059105A8F321E0821A910836
:10048000A108B10888EEC80E83E0D81EE11CF11C5B
:1004900081149104A104B10429F7FF90EF90DF903B
:1004A000CF90BF90AF909F908F9008950F931F9320
:1004B000CF93DF938C01C5E0D0E061E0802F0C1773
:1004C0001D0711F060E08C2F0E94B3012196C83007
:1004D000D10599F7DF91CF911F910F9108951F9248
:1004E0000F920FB60F9211242F933F934F935F9368
:1004F0006F937F938F939F93AF93BF93EF93FF93EC
:100500008DE191E00E942401FF91EF91BF91AF91A5
:100510009F918F917F916F915F914F913F912F911B
:100520000F900FBE0F901F9018951F920F920FB64D
:100530000F9211242F938F939F93EF93FF93E0914A
:100540002D01F0912E018081E0913301F091340171
:1005500082FD1BC09081809136018F5F8F73209147
:100560003701821741F0E0913601F0E0E35EFE4F83
:10057000958F80933601FF91EF919F918F912F91ED
:100580000F900FBE0F901F9018958081F4CF1F928F
:100590000F920FB60F9211242F933F938F939F9337
:1005A000AF93BF938091130190911401A091150115
:1005B000B09116013091120123E0230F2D3758F529
:1005C0000196A11DB11D20931201809313019093F8
:1005D0001401A0931501B093160180911701909119
:1005E0001801A0911901B0911A010196A11DB11D28
:1005F0008093170190931801A0931901B0931A01E9
:10060000BF91AF919F918F913F912F910F900FBE0E
:100610000F901F90189526E8230F0296A11DB11D7B
:10062000D2CF789484B5826084BD84B5816084BD66
:1006300085B5826085BD85B5816085BD80916E0080
:10064000816080936E0010928100809181008260B1
:1006500080938100809181008160809381008091EE
:1006600080008160809380008091B10084608093DD
:10067000B1008091B00081608093B00080917A00D9
:10068000846080937A0080917A00826080937A00FF
:1006900080917A00816080937A0080917A008068EE
:1006A00080937A001092C10085E00E94870086E066
:1006B0000E94870087E00E948700E0912D01F09161
:1006C0002E0182E08083E0912901F0912A011082BD
:1006D000E0912B01F0912C018FEC80831092350179
:1006E000E0913101F091320186E08083E0912F01A9
:1006F000F0913001808180618083E0912F01F09141
:100700003001808188608083E0912F01F091300179
:10071000808180688083E0912F01F0913001808199
:100720008F7D8083C0E0D0E08DE191E00E940401E4
:100730001816190644F48DE191E00E94E2009093AE
:100740001C0180931B0180911B0190911C01853439
:10075000910599F585E090E00E94560268EC70E002
:1007600080E090E00E94240286E090E00E94560221
:1007700064E670E080E090E00E94240287E090E070
:100780000E94560268EC70E080E090E00E94240233
:1007900086E090E00E94560264E670E080E090E01F
:1007A0000E942402209709F4BFCF0E9410018823E1
:1007B00009F4BACF0E940000B7CF8134910591F7B8
:1007C00089E090E00E945602EDCFEDE1F1E0138266
:1007D000128288EE93E0A0E0B0E084839583A68344
:1007E000B78384E091E09183808385EC90E09587E6
:1007F000848784EC90E09787868780EC90E0918BEB
:10080000808B81EC90E0938B828B82EC90E0958BD7
:10081000848B86EC90E0978B868B118E128E138ED4
:10082000148E0895EE0FFF1F0590F491E02D0994AA
:04083000F894FFCF6A
:10083400000000004601A600D30093010401E20079
:02084400F600BC
:00000001FF
